:020000041000EA
:10000000002008205D0100101301001015010010F0
:100010001101001011010010110100101101001058
:100020001101001011010010110100101701001042
:100030001101001011010010190100101B01001026
:100040001D0100101D0100101D0100101D010010F8
:100050001D0100101D0100101D0100101D010010E8
:100060001D0100101D0100101D0100101D010010D8
:100070001D0100101D0100101D0100101D010010C8
:100080001D0100101D0100101D0100101D010010B8
:100090001D0100101D0100101D0100101D010010A8
:1000A0001D0100101D0100101D0100101D01001098
:1000B0001D0100101D0100101D0100101D01001088
:1000C0001D0100101D0100101D0100101D01001078
:1000D0001D0100101D0100101D0100101D01001068
:1000E0001D0100101D0100101D0100101D01001058
:1000F0001D0100101D0100101D0100101D01001048
:100100001D0100101D0100101D0100101D01001037
:1001100000BE00BE00BE00BE00BE00BEEFF3058004
:10012000103800BEF2EB88711C68001040680010A7
:10013000A801001090A31AE7D3DEFFFF42012110AF
:10014000FF0100000C7B0000793512AB4FF000007E
:100150002049086006C881F3088810474FF05040D6
:10016000006810B14FF00000F2E70FA40ECC002998
:1001700002D000F015F8F9E71749184A002000E00E
:1001800001C19142FCD1002080F30A8814498847BC
:10019000144988471449884700BEFDE701C901C2D8
:1001A0009A42FBD3704700BF406800101001002046
:1001B00014150020447C00100000082000000820D6
:1001C000447C0010001008200010082000000000EF
:1001D0007047000008ED00E0141500200C230020FB
:1001E000653300100D0200105D330010F8B500BF3C
:1001F00008B5034B1BB103490348AFF3008008BDAA
:100200000000000074220020D46300102DE9F04F9C
:10021000844C8DB003F0CEF900F024F982492068B7
:1002200005F012FE4FF44023D4F80080069308F145
:100230002F4303F560034FF480321E0D4FF4F83363
:100240004FF0000BCDE904230DF1200CCDF81CB0CC
:1002500004AFC31D4FEAC01E4EEA033E814697E835
:100260000F008CE80F000636CDF824E09CE80F0064
:10027000F6B287E80F006D4D6D4B31460D200793A8
:10028000D5F800A000F004F931460E2000F000F986
:1002900031460F2000F0FCF801230D225146009357
:1002A0004046032305F04AFE069B0A2223F01F0363
:1002B00043F003030693079B514623F4782343F44A
:1002C000A023079340460323CDF800B005F036FE87
:1002D00031460A2000F0DCF831460B2000F0D8F857
:1002E00031460C2000F0D4F8069B052023F0FA7369
:1002F00023F48033069301F055F94E4A9FED4E7A70
:10030000A2FB0023DB0907EE903AF8EEE77A77EEDE
:10031000877ABCEEE77A17EE103A9BB2002B66D0D4
:1003200007EE103AB8EE477ADFED446A77EEC77A07
:1003300067EEA67AFCEEE77ACDED037A9DF80C2005
:100340001B0443EA022351464A46049340463B4677
:1003500005F03AFE0123D8F8002003FA0AF313430C
:10036000C8F800304FF47A7000F0F6FE344803F01D
:1003700065F92B682268083352F82330002B38D1F6
:10038000DFF8C8A02F4FDFF8D8B00AF1180907F13D
:10039000060800212C4803F0D1F92C4E56F8040B26
:1003A00005F0CEFF02460B46294803F0C7F94E453B
:1003B000F4D1284803F042F9224E16F8011B2448D4
:1003C00003F0BCF94645F8D1224803F037F99BF811
:1003D0000010214803F0B2F9642000F0BDFE2B6844
:1003E0002268083352F82330002BD2D006E01A4698
:1003F000A6E7DFF86CB0DFF854A0124F9BF800308E
:10040000002601251946154C4A1CA4FB02039B0833
:1004100003EB43030AEB8100A2EB43027D54066029
:10042000D1B2F1E76814002090650010C0220020CE
:10043000A001000CD34D62100000003B000080437F
:10044000D8630010FC220020EC630010E42200209E
:10045000FC6300100464001008640010ABAAAAAA90
:100460000523002008B54FF4E131074800F0B0FF44
:100470000221002000F00CF80221012000F008F811
:10048000024B1B7808BD00BF000007403868001011
:1004900010B44FF480740C4B53F8202003EB80030E
:1004A000C00082F0400200F1804003F5805C02F061
:1004B000C00200F5203003F54053CCF80020416025
:1004C0001C605DF8044B7047048003400FB400B516
:1004D00083B0049C074803F0B1F83CB105A920465D
:1004E000019102F021FF044803F0A8F8012002F076
:1004F00033FF00BF1C6400102C640010EFF3108069
:1005000072B6064BD3E8CF1F01220029FAD1C3E807
:10051000412F0029F6D1BFF35F8F7047E719002004
:100520000023034AC2E88F3F80F31088704700BF62
:10053000E719002070B58646EFF3108572B6124CAD
:10054000D4E8CF6F0120002EFAD1C4E8460F002E68
:10055000F6D1BFF35F8F4FF0010CC80801F007031D
:100560000CFA03F31EF800C01CEA030608D14CEA9B
:10057000030C0EF800C0C4E88F6F85F3108870BDBF
:100580001046FFF7A3FF00BFE7190020F8B5EFF30F
:10059000108772B61C4ED6E8CF5F0124002DFAD129
:1005A000C6E8454F002DF6D1BFF35F8F9A421BD8A6
:1005B000012502E00132934222D3D40810F804E06E
:1005C00002F0070C05FA0CFC1EEA0C0FF2D14EEA01
:1005D0000C0E00F804E010460023C6E88F3F87F3B6
:1005E0001088984207DBF8BD0023C6E88F3F87F3E9
:1005F00010884FF0FF300029F5D00698FFF766FF0E
:100600004FF0FF30E8E700BFE7190020044A1078F8
:10061000431CDBB2182B28BF10231370704700BF98
:100620006C14002010B5054C82B001461F2318221F
:1006300000940348FFF7AAFF02B010BD3064001019
:10064000041E00204FF0E022936843F000539360B3
:10065000704700BF0021044B03F12002C3E88F1F45
:1006600001339342FAD17047DC1900204FF0E023A8
:100670004FF08032C3F80024C3F80424C3F80824E0
:10068000C3F80C24C3F81024C3F81424C3F81824A6
:10069000C3F81C24C3F82024C3F82424C3F8282456
:1006A000C3F82C24C3F83024704700BF012300F0A6
:1006B0001F029340400941B1800000F1604000F505
:1006C0006140C0F8803103607047024A203042F830
:1006D0002030704700E100E00123064A410952F84A
:1006E000212000F01F0003FA00F01040003818BF6E
:1006F0000120704700E100E001224309034900F0B6
:100700001F008240403341F82320704700E100E0A1
:10071000054A10309268054B52F82000C01A2F2865
:100720008CBF00200120704700ED00E07014002015
:10073000F8B50D46EFF3108772B6124ED6E8CF2FFC
:100740000123002AFAD1C6E8423F002AF6D1BFF3BE
:100750005F8F0D4B00F110049B680C4A53F8243056
:10076000934203D0994201D001F026F8064B9B68D2
:1007700043F82450BFF35F8F0023C6E88F3F87F311
:100780001088F8BDE519002000ED00E01D01001003
:100790002DE9F04F81468B46164683B0EFF3108368
:1007A00072B6DFF8D0A10093DAE8CF1F0123002949
:1007B000FAD1CAE8413F0029F6D1BFF35F8F664BFB
:1007C00093F90040002CC0F2A080644D04EB440774
:1007D00005EB870898F8061009F110091970604BAD
:1007E000BF009B6853F829006300411B2F292FD9B4
:1007F0005C49884240F0A4801C445B4B02372F4484
:10080000043BDB1BC3F34A036FEAC3434FF42141AC
:100810006FEAD34325F8241005EB840463804BF67C
:100820000153A380FF2348F00100E671C4F808B02B
:10083000A3714B4B9B6843F82900BFF35F8F0023E4
:10084000CAE88F3F009B83F3108803B0BDE8F08FA8
:1008500020F0010E9EF80710B1422ED84FF421432C
:10086000EB53414BB91C2944043B04375B1A2F441A
:10087000AEF10401C91BC1F34A043C49C3F34A0366
:100880000B432143A8F804103949A8F802304AF66E
:10089000AA2073465B1B5B415843000D88F8076034
:1008A00088F80600C8F808B048F00100CEF800103B
:1008B000BFE7D179B1422ED996469EF906C00CEB1E
:1008C0004C02BCF1000F05EB8202F2DA4BF601514B
:1008D0000EF10402A8F10407BF1AC7F34A076FEA32
:1008E000C7476FEAD7478EF8064003EB0408204C51
:1008F00005EB8803AEF8047045F82840998083F82A
:1009000006C0DE71C3F808B093E700F055FF124B44
:1009100093F9004059E7724632F8041F490514D490
:100920004915023102EB410101916FF00701C91B2A
:10093000019F491B3944C1F34A0141F46041C9E7B1
:10094000019300F039FF019B56E701F5FF1101F516
:10095000FF511F31E4E700BF062300207014002080
:1009600000ED00E01D010010A014002000E0FFFFDA
:1009700001488047E5190020F0B5EFF30585EDB299
:10098000EFF3108C72B62649D1E8CF2F0123002A4D
:10099000FAD1C1E8423F002AF6D1BFF35F8F214E62
:1009A00040F0010EB4684AF6AA2354F825701E4A96
:1009B0000446A41A644163431B0D77455BB21BD008
:1009C00092F906409C421CD092F912409C4223D0DE
:1009D00092F91E409C4221D092F92A409C4208BFC5
:1009E00003240FD0114A0024157813708571C1E8D3
:1009F0008F4F8CF31088F0BDB2680D4C42F8254043
:100A0000F0E7002404EB440402EB8402FF24947119
:100A10004BF601549480E5E70124F3E70224F1E763
:100A2000E519002000ED00E07014002006230020EE
:100A30001D01001010B5074C82B0014605230022AD
:100A400000940548FFF7A2FD0028A8BFC0F13300BD
:100A500002B010BD4C6400100A230020014B0B446F
:100A600003607047DC19002070B5104C104DAC428B
:100A70000ED2FF26236863B1FFF7C8FD014620466A
:100A8000FFF7ECFFA680BFF35F8F0834AC42F1D3D1
:100A900070BDFFF7BBFD01462046FFF7DFFF267163
:100AA000BFF35F8F0834AC42E4D370BD0C15002057
:100AB0001415002010B50446FFF7A8FD0146204696
:100AC000FFF7CCFFFF232371BFF35F8F10BD00BF83
:100AD00010B504460120FFF7A5FD034B0344236036
:100AE000BFF35F8F10BD00BFDC190020024B0B4429
:100AF0000360BFF35F8F7047DC1900200D4B1A684D
:100B0000EFF3108172B6D2E8CFCF0120BCF1000F15
:100B1000F9D1C2E84C0FBCF1000FF4D1BFF35F8FE5
:100B200000221B68C3E88F2F81F3108840BF00208C
:100B300000217047BC2200202DE9F04F2DED028BE3
:100B400085B0EFF30583DBB2103B9A0818BF012292
:100B50004FF0010103F0030B18BFAF4DAF4B08BFBF
:100B6000AF4D0BEB820253F8226001FA0BF205F550
:100B700041539FEDA78B01925A602FE0B3881C046C
:100B800040F19380B379002B40F0DD80B6F9082066
:100B9000002AC0F21E81736902EB420203EBC2031A
:100BA000D3E90247B7F1FF3F08BFB4F1FF3F0ED0D2
:100BB00005EB8B01AB6A0A69D21AE31A934205D39B
:100BC00001232A6A03FA0BF3134200D10C61284671
:100BD00000F0ACFBA042B941C0F2FB80B6F908308E
:100BE000019A002B0093EA63C8DBD6F8148003EB6C
:100BF0004309284608EBC907D7E9024A00F096FBEB
:100C0000A04271EB0A01B9DBBAF1000FC0F2C38058
:100C1000D7E90431834A934200F0ED807A88B6F92F
:100C2000080092B242EA0040984702460B4652EA58
:100C3000030100F0B080002B80F2D180B4EB020EF3
:100C40006AEB030A38F93930C7E902EA002B95DB71
:100C5000716903EB430201EBC202D2E90270BE45A7
:100C60007AEB000C4FEA430288DBB4462CF8083FCD
:100C700006E003EB430001EBC0005A00D0E902702C
:100C8000BE451A447AEB000001EBC20404DB31F9E3
:100C90003230A446002BECDA28F83930009BACF84F
:100CA0000030B3881C043FF56DAF3369EFF3108259
:100CB00072B6D3E8CF0F01210028FAD1C3E8401F54
:100CC0000028F6D1BFF35F8F4FF6FF74B088002382
:100CD000316900B2B480C1E88F3F82F31088984236
:100CE000FFF650AF0746A946746906F1080807EBFE
:100CF000470E04EBCE03D3E90250B6F90830C446E0
:100D0000002B13DBB246009704E034F936309446EA
:100D1000002B09DB03EB430604EBC602D2E90271A8
:100D2000BD4270EB0101F0DA5646009FACF800704E
:100D300034F93E7024F83E30002FD8DAB3794D46AE
:100D4000002B3FF423AF0023B371B6F9083006F14E
:100D50000808581C3DD01A46776903E08046591CA4
:100D60003FF416AF03EB430107EBC100B0F802C03C
:100D70001C461CF4004F9E4637F93130EED09442A9
:100D800080ED028B05D0A8F80030328927F8312099
:100D900034817246E3E738F8393033813369EFF351
:100DA000108272B6D3E8CF0F01210028FAD1C3E830
:100DB000401F0028F6D1BFF35F8F7388316928F890
:100DC0003930009B73800023C1E88F3F82F3108885
:100DD000D4E640BF05B0BDEC028BBDE8F08F2846DD
:100DE000CDE9022300F0A2FA029A039B10EB020E57
:100DF00043EB010A26E708460B6902919847002851
:100E0000C9D00299D1E9002311E700BFAFF30080F8
:100E1000FFFFFFFFFFFFFFFF00800B409422002039
:100E200000000B40390B00102DE9F84F364C2569B6
:100E30002DB1BDE8F84F0A213448FFF70FBEDFF8A7
:100E4000E4800321404600F05FFA0326C4F80C80DA
:100E5000FFF7DCFB4FF0504C2D4B26700344236111
:100E6000DCF800300F216370636961801D834FF0EF
:100E70000405A3F878504FF00505A3F890504FF003
:100E80000605A3F8A8504FF007050E214FF6FF7294
:100E900008274FF00A0EA3F8C0504FF001094FF099
:100EA0000C0C4FF0020B4FF0090A0D204FF00B0510
:100EB000A3F868111749A280A3F808E1A160A3F87C
:100EC00048B0A3F8F0A0A3F82051A3F838C1A3F8C4
:100ED0005001A3F83090A3F86060A3F8D8701A808E
:100EE0000D4B3046C8F820700C49DC60FFF720FC41
:100EF00049463046FFF7DAFB094B0A211F640348D5
:100F0000BDE8F84FFFF7AABDB8140020BC220020AE
:100F1000DC190020FFFF100094220020390B001084
:100F200000200B4000000B4000487047B814002020
:100F3000F8B59DF82050044617461E4635B900F016
:100F4000FDF9874266EB010100295CDB2169EFF3C3
:100F5000108372B6D1E8CF0F01220028FAD1C1E880
:100F6000402F0028F6D1BFF35F8FB4F902206569E6
:100F700002EB4201002A4FEAC10C206905EBC101D6
:100F800039DB35F80CE0A4F802E04FF0000EC0E8C1
:100F90008FEF83F310884888069B0130C0F30E0062
:100FA000012838BF01200B61079B48804B61C1E9D4
:100FB000027640EA02402369EFF3108172B6D3E86B
:100FC000CF7F0126002FFAD1C3E8476F002FF6D15B
:100FD000BFF35F8FA38825F80C30A2802369C3E894
:100FE0008FEF81F310880122E368217803F5015324
:100FF0008A405A60F8BD0022C0E88F2F83F3108822
:101000004FF0FF30F8BD2846F8BD00BF0146F0B5EF
:101010000069EFF3108772B6D0E8CF5F0124002D8E
:10102000FAD1C0E8454F002DF6D1BFF35F8FB1F97B
:1010300002E04C690EEB4E0CBEF1000F4FEACC05FE
:10104000086904EBCC0C3CDB665B4E800026C0E8F4
:101050008F6F87F31088BCF80200CCE902230130BF
:10106000C0F30E00012838BF0120059BACF8020038
:10107000CCF81030069B40EA0E40CCF814300B69D7
:10108000EFF3108272B6D3E8CFCF0127BCF1000F87
:10109000F9D1C3E84C7FBCF1000FF4D1BFF35F8FEF
:1010A0008B886353A1F804E00B69C3E88F6F82F368
:1010B00010880122CB68097803F501538A405A60F1
:1010C000F0BD0023C0E88F3F87F310884FF0FF305A
:1010D000F0BD00BF03464089B0EB214F37DD5869B2
:1010E0000A1402EB420210B500EBC2001C69EFF3D8
:1010F000108C72B6D4E8CFEF0122BEF1000FF9D107
:10110000C4E84E2FBEF1000FF4D1BFF35F8F4288C9
:1011100089B292B28A4207D000221B69C3E88F2F9E
:101120008CF31088002010BD42F40042428001215F
:10113000002218699971C0E88F2F8CF310881C78F1
:10114000DA68084602F50153A140596010BD00203D
:10115000704700BF407870472DE9F04182B00646E5
:1011600000F0ECF84FF47A7304464FF0FF306FF064
:101170000042E6FB0341A04272EB01033ABF044682
:1011800015460D46A61F45F1FF37B44275EB070320
:101190003CBF0026374600F0D1F8301A67EB01015A
:1011A000012871F1000106DA2046294602B0BDE8A7
:1011B000F04100F0FBB800F0C1F8864267EB010196
:1011C00000290ADB0021174B3246009316483B46A4
:1011D0000191FFF71BFF0130E6D04FF0000C134ADE
:1011E0001349536A9F4204D8906AB042DCD29F42AE
:1011F000DAD10B68EFF3108072B6D3E8CF8F5FF0CF
:10120000010EB8F1000FF8D1C3E848EFB8F1000FB4
:10121000F3D1BFF35F8F0B68C3E88FCF80F31088E3
:1012200020BFDEE7FD0A0010B814002000000B40CC
:10123000BC2200202DE9F04306460D4683B0EFF3B3
:101240000584E4B23CB12D4B5A6AAA421CD200205C
:1012500003B0BDE8F0832A4FD7F80C9097F80080D0
:10126000484600F063F808F1040859F828301B1AC2
:10127000301A65EB0101984271F1000110DB20BFCB
:101280001E4B5A6AAA42E2D314BF012400249B6A6F
:10129000B34234BF204644F0010003B0BDE8F08300
:1012A00000F04CF8864265EB0101002914DB154B78
:1012B0003846CDE9003432462B46FFF7A7FE011E23
:1012C0000ADD0E4B5A6AAA4216D39B6AB34211D367
:1012D0000B48FFF7FFFEB6E7084B5C6AAC42B6D39B
:1012E000641B18BF01249B6AB34234BF204644F0FC
:1012F0000100ADE7AA42EBD120BFE9E700000B40B7
:10130000B8140020FD0A001010B4054B054C064A25
:10131000A04214BF1846581C5DF8044BFFF70AB9E9
:10132000081E002000800B40686400100346416ADC
:101330000A46986A596A8A42FAD17047034B596A39
:101340000A46986A596A9142FAD1704700000B40E8
:1013500030B4154A536A9C46946A536A6345FAD17D
:10136000021959414FF0000528BF01250E4B5B6A59
:10137000B5B15A1C08BF1A4608D04FF0FF310A46D3
:101380000948436A8B42FCD38B4207D1064902E0ED
:10139000486A984202D1886A9042F9D330BC7047BB
:1013A0009942EDD8F0E700BF00000B40074A536AAE
:1013B0009942FCD8994207D1044B02E05A6A914203
:1013C00002D19A6A9042F9D8704700BF00000B40E2
:1013D000F8B5054606200E4600F0E4F8002842D095
:1013E000354A3648954214BF4FF080624FF0006294
:1013F000334B344902601A608C6832EA0404FBD132
:101400002D4B4FF48071EB1AB3FA83F32E4A5B092C
:10141000062022F8131000F0C5F8C300B3FBF6F362
:101420000133DA0920D1402601216962AA622F6BBB
:10143000FB0722D42B46002253F82C1F062003F56D
:10144000805422602F6300F0ADF840F20131032296
:101450008000B0FBF6F0EB6A83F0700303F07E03CC
:1014600023602963AA64F8BD4FF6FE718A421BD936
:1014700022464FF6FF71154ED7E740F2013205F5CF
:1014800040531A636B6AAC6A062004EB831400F0C5
:1014900089F80F4BA402A3FB0023DB0A0021B4FB55
:1014A000F3F0FFF755FFC5E7C3F34503114603EB20
:1014B00082161A46B9E700BF0080074000200240AC
:1014C0000030024000000240CC220020C0FF3F005C
:1014D000757B2B8F00EB400C4FEA8C0C0CF1804C91
:1014E0000CF5803CF0B51646DCF80420051FB2F57B
:1014F000803F38BF4FF48032EDB238BFCCF80420C3
:10150000012D2AD94FF40067254C0CF54052176085
:1015100054F82020B2B9DCF80020012D82EA4612EE
:1015200002F0E0020CF5805632602AD94FF40061D7
:1015300044F820304FF480330CF500521160CCF8A1
:101540000430F0BD6769B7FBF2FE0EF1010E0EEB41
:101550004E0EBEF1030EFCD2DDE70129D2D10324E9
:101560000CF540521460DCF80820D207FBD5DCF8FB
:1015700000200B4C82EA461202F0E0020CF5805685
:1015800032600122DCF800504D4005F00305356063
:1015900002FA01F1DCF808200A42FBD0C6E700BFDE
:1015A0000C1E0020014B53F8200070470C1E002039
:1015B00070B4039D04682D0345EA03451B4B002CC2
:1015C000B3FBF1F3B2FBF3F61FDB194A194B904260
:1015D00014BF4FF480424FF40042174C1A6003F5D9
:1015E00080531A60A36832EA0303FBD1212200F57D
:1015F00040530433016086601A600268002AFCDAF6
:101600000822C5601A6070BC7047036803F03F038E
:101610008B42DAD18368C3F30B03B342D5D1C368DD
:1016200003F4EE23AB42D0D1EDE700BF001BB700BF
:1016300000800540002002400000024030B44FF01E
:1016400080441C4B1C60E0B11B4CA3F54053DC6193
:101650001A4C40F0010044401C62596298624FF0FD
:1016600080454FF0E061134B1548164C1D608460B7
:1016700019604AB930BC4FF00042A3F580531A609C
:101680007047114BD861EAE74FF47A7303FB02F21B
:10169000B2F1807F2ABF6FF07F4313461A464FF0A6
:1016A00080410A4C08482360094B426030BC1960F5
:1016B000704700BF00B00D40D3C007B02D3FF84FBA
:1016C00000A00140F3FFFF0100800D406C220020CC
:1016D00000A00D40012300EB4000800000F180409D
:1016E00000F5841041600360704700BF002370B5AF
:1016F000DB8A04460D46002242E800F2520254BF43
:101700001021042144F25220984786462B46224657
:10171000F446BDE870400A214FF48170604700BF75
:101720000023DB8A002242E800F2520201D4102199
:1017300018470421184700BF08B503460846191E7C
:1017400002DB1AB140F03000FFF7D0FF40F020007C
:10175000FAE700BF034AD2F82838002BFBD0BFF3CA
:101760005F8F704700000E400021044B044ABFF316
:101770005F8F43F8041B9342F9D170470C080E4069
:101780002C080E4010B44FF48D704FF42A64064AB2
:10179000064B07491460D06019605368002BFCDACF
:1017A0005DF8044B704700BF0080044000A0044077
:1017B00000B0FA00704700BF08B50148FEF786FE8A
:1017C0008C64001038B5054C054DAC4204D254F879
:1017D000043B9847AC42FAD338BD00BF8863001081
:1017E000C863001010B40748074C084B084A094961
:1017F00004601A608B6832EA0303FBD15DF8044B86
:10180000704700BF002002407F3BEFEF00300240F6
:10181000F6FFF30300000240044BDB6CB3F5004F0E
:1018200003D14FF48022024BDA647047000011505C
:10183000002011504FF0E022044BD2F8881D0B43DA
:10184000C2F8883D10EE3004704700BF030330003B
:101850006FF06041044B054A19609368DB4333F035
:101860006043FAD1704700BF0030024000000240E0
:1018700010B545F25320FFF753FFBDE81040034673
:101880000420184710B545F25320FFF749FFBDE883
:101890001040034601201847FEF7DCBE10B5054B8B
:1018A000054C4FF488721846A16804F04DFCA06006
:1018B00010BD00BF0000002000ED00E0002370B567
:1018C0002B4C82B0C4F88430FFF75CFF0122294B17
:1018D000DA63636C012BFCD10321264A244B11638C
:1018E0009C6B012CFCD10226052521460523224AAA
:1018F00022480096FFF75CFE21462B46204A2148ED
:101900000095FFF755FE0022042031461E4BFFF7DD
:10191000E1FD2146284600221C4BFFF7DBFD00229B
:10192000082011461A4BFFF7D5FD00220920114669
:10193000174BFFF7CFFD002206201146134BFFF790
:10194000C9FD0022114B07201146FFF7C3FD0420FB
:10195000FFF728FE00240F4BA3FB0035AD0CE0B2CF
:1019600029460134FFF7B6FE062CF8D102B070BD4F
:101970000000014000300140002F68590000054080
:10198000008C864700800540001BB70080D1F0081E
:10199000006CDC0283DE1B4386B003B451FC0804F8
:1019A000CDE9020151FC0904CDE9040151EC0A041E
:1019B000CDE9060103BCF047BDE800504EEC00C481
:1019C000BDE800504EEC01C4BDE800504EEC02C42E
:1019D00000BD000000B5FFF7DFFF02E010FE30F4AD
:1019E000F8D441EC100443EC112400EE010410EE95
:1019F000010480EE200451EC1004704700B5FFF79D
:101A0000CBFF02E010FE30F4F8D441EC100443ECBC
:101A1000112400EE010410EE210480EE200451ECAC
:101A20003004704700B5FFF7B7FF02E010FE30F456
:101A3000F8D410B541EC100443EC112451EC04042B
:101A400053EC0524A0FB024C5FF0000EE0FB03CE3C
:101A5000E1FB02CE4CEC20440024E1FB03E444EC27
:101A600030E480EE200451EC5004BDE81040704793
:101A700000B5FFF791FF02E010FE30F4F8D441EC1E
:101A8000100443EC112451EC2104A0FB01126FEA75
:101A9000820252FB100052FB12F252FB1000A0EB2C
:101AA000D07C53EC04245CFB13F153EC1524A1FB14
:101AB000022001FB030053EC4424A2EB000050FB86
:101AC0001CF24FEA111312EB017043EBE27140EA92
:101AD000515020EA915020F0070053EC7524A0FBF0
:101AE000023C53EC752400FB03CC01FB02CC53EC0D
:101AF0000424ACEB824C40EA5C70A0F1010041ECA4
:101B0000400480EE200451EC7004704700B5FFF7EC
:101B100043FF02E010FE30F4F8D440EC700400EE15
:101B2000010410EE210480EE200451EC30047047D3
:101B300000B5FFF731FF02E010FE30F4F8D440ECBE
:101B4000600400EE010410EE210480EE200451EC4C
:101B50003004704700B5FFF71FFF02E010FE30F4BD
:101B6000F8D441EC800400EE010410EE010480EE94
:101B7000400410EE1304704700B5FFF70DFF02E0BC
:101B800010FE30F4F8D441EC800400EE010410EEB5
:101B9000010480EE400410EE3304704700B5FFF7F7
:101BA000FBFE02E010FE30F4F8D441EC100443ECEC
:101BB000112400EE010410EE3004C0F300707047F1
:101BC00000B5FFF7E9FE02E010FE30F4F8D443EC74
:101BD000102441EC110400EE010410EE30F48CBF2F
:101BE00001200020704700BF00B5FFF7D5FE02E0DE
:101BF00010FE30F4F8D443EC102441EC110400EE54
:101C0000010410EE30F42CBF01200020704700BF0B
:101C100000B5FFF7C1FE02E010FE30F4F8D441EC4D
:101C2000100443EC112400EE010410EE30F42CBF3C
:101C300001200020704700BF00B5FFF7ADFE02E0B5
:101C400010FE30F4F8D441EC100443EC112400EE03
:101C5000010410EE30F48CBF01200020704700BF5B
:101C6000704700BF2DE9F04F83B09946DDE90DAB19
:101C70000F9B884611469A07074616D1DA453AD295
:101C80000C460D46ABEB0A060E4422464B46414637
:101C900020200134B847B442F7D12946BAF1000FE9
:101CA00008D1204603B0BDE8F08F0C46BAF1000F12
:101CB00010D00E4655460C9B2E449A440191721B3F
:101CC0004B46013D41461AF8010D3446B847002DF8
:101CD000F5D101990F9B9B07E3D5651AAB45E0D978
:101CE00022464B46414620200135B8475D4504F168
:101CF0000104F5D3D5E70C46BAF1000FD9D1D0E7EE
:101D00002DE9F04F0F9FDDF8248017F0020F0A9C99
:101D10009DF82CA00E9DDDE90C9644D1F5BBB44294
:101D200041D207F0010B04F1FF3C4FF0300EC444E8
:101D300004E00134A6420CF801EF01D9202CF8D1BF
:101D4000BBF1000F00F08880A5422CD904F1FF3CC4
:101D50004FF0300EC44404E00134AC420CF801EF03
:101D600021D0202CF8D117F0100F0ED017F4806F6F
:101D700054D1A64263D0A54261D0B9F1100F50D022
:101D8000B9F1020F56D0202C29D12024CDE90B57D0
:101D9000CDE90984BDE8F04FFFF764BF17F0010BF0
:101DA00034D1B442BFD317F0100F1ED017F4806F98
:101DB000E3D1002CDDD1B9F1100F63D0B9F1020FDE
:101DC00077D0302488F800400124BAF1000F11D1F7
:101DD0007E0748D52B2608F804600134D6E726464E
:101DE00001344FF0300C08F806C0202CCDD0BAF1E9
:101DF000000FEDD02D2608F804600134CDE90B5713
:101E0000CDE90984BDE8F04FFFF72CBFBAF1000F10
:101E100030D0B44205F1FF3585D395E7B9F1100F05
:101E2000B3D1BE063BD5202CAFD0582608F80460AD
:101E30000134A8E7202CA8D02646013407E0661E0E
:101E4000B9D0B9F1100F36D0B9F1020FC9D14FF0A6
:101E5000620C08F806C096E717F0100FC5D017F40B
:101E6000806F86D089E73E0790D5202608F8046069
:101E700001348BE717F00C0F00D0013DB442FFF4A2
:101E800052AF61E7BC0612D4782488F800403024B1
:101E900088F801400224BAF1000F99D0AAE7202C5B
:101EA0003FF473AF782608F8046001346BE75824D8
:101EB000EBE76224E9E717F0200FA4F1020C04D04D
:101EC0004FF0580E08F80CE08BE74FF0780E08F84A
:101ED0000CE086E700B9704701F06EBB10B1D1E9A4
:101EE00000311847704700BF2DE9F04F97B09DEDC6
:101EF000207BDDE9225B0746884651EC170B249CCA
:101F000099460C920B4602468DED047B0794FFF731
:101F100049FE002840F0F481DDE904014FF0FF3272
:101F20006FF48013FFF750FE002840F01B81DDE9BD
:101F300004014FF0FF32AC4BFFF782FE002840F067
:101F4000EE80DDE90401A4A3D3E90023FFF778FEC6
:101F5000002840F0D380DDE90401A1A3D3E90023E8
:101F6000FFF732FE002840F0C980DDE904010022BD
:101F70000023FFF729FE002840F0E88023460D905B
:101F800013F4806F08BF062530212B460EAAA5F159
:101F9000200605E0013BB34202F8011B00F09381EB
:101FA000092BF7D81E46ED1ADDE90401FFF7D6FD2F
:101FB0008E4B044603EBC60393ED007B8DED087B4F
:101FC000FFF7A8FD02460B46DDE90401FFF71AFD05
:101FD000DDE90823FFF72AFD02460B46CDE90A2377
:101FE000FFF7CEFD8246FFF7A7FD02460B46DDE96F
:101FF0000A01FFF707FD02460B46CDE90A2300223E
:102000007B4BFFF71DFE002800F0FE800AF1010A5D
:102010005046FFF791FD02460B46DDE90801FFF748
:10202000E7FD10B14FF0000A0134002E00F0FD80F2
:10203000681E0EABDFF8CCC118440FE0ACFB0A21E0
:10204000C90801EB8102AAEB42023032BAF1090F52
:1020500000F8012F40F21C818A461D46202D05F113
:10206000010306F1FF36E9D12025691E0EAB614858
:10207000194410E080FB0462C3EBA20303EB83026C
:10208000A4EB420404F1300201351C4601F8012F93
:10209000002B00F0EB80202D4FEAE473EAD1079B80
:1020A00003F00303012B18D1BBF1000F15D00D9BDA
:1020B000002B00F00A810BF1FF3BBBF1200F0CD984
:1020C0006B1E0EA930220B4405E001355D4503F877
:1020D000012F80F0D180202DF7D1079B0EACCDE9E8
:1020E00002B341464B4638460C9A01950094FFF7DF
:1020F000B9FD8246504617B0BDE8F08F079B9DEDB5
:10210000047BCDE923B341464B4638460C9A8DED0E
:10211000207B229517B0BDE8F04F00F045B961076C
:1021200023464CBF042303234146219338464B46A4
:10213000079A48BF304CCDE922B258BF2F4C0C9AB9
:10214000209417B0BDE8F04FFFF78CBDDDE9042304
:1021500000200021FFF756FC0123CDE904010D9377
:1021600023460DE723469C0740F0AA80BBF1040FED
:1021700040F2A6800C9B1D461C1F04EB0B0A2A464E
:102180004B46414620200135B847AA45F7D1554670
:102190001B4C261F14F8010D2A464B464146B847F2
:1021A000B44205F10105F5D1079B0AF1040A98072D
:1021B000A0D50C9CAAEB04039B459BD952464B46E9
:1021C000414620200AF1010AB847AAEB04035B4507
:1021D000F4D38FE7AFF300800000000065CDCD4160
:1021E0000000000065CDCDC1FFFFEF7F0866001045
:1021F0000000E03F67666666DC640010E46400107F
:10220000F0640010CDCCCCCC0022DDE90A01634B98
:10221000FFF7DAFC00287FF408AFBAF1000F6AD1AB
:102220000AF1010A002E7FF403AF2046FFF772FC8B
:1022300002460B46DDE90401FFF7E4FB02460B46CC
:10224000CDE904230022554BFFF7BEFC00287FF4A4
:102250000CAFDDE904010022504BFFF7F1FC002830
:102260007FF403AF013424F00104FEE6079B03F082
:102270000303012B00F08280202D3FF42EAF0D9B35
:102280007BB32D220DEB050383F83820013524E7BD
:10229000202B3FF4E9AE0EAA15441E44302204E080
:1022A000202B05F8012F3FF4DFAE9E4203F101031E
:1022B000F6D12E220DEB060383F83820751CD4E6E8
:1022C000DDF830A063E720256EE6079B13F00C0FC6
:1022D00050D00BF1FF3BAB453FF6F2AE202D3FF463
:1022E000FCAE079B5A0701D52B22CBE71B077FF5D6
:1022F000F4AE2022C6E71AF0010F3FF496AE8FE746
:10230000A60734D1BBF1030F31D90C9B1D46DC1E4F
:1023100004EB0B0A2A464B46414620200135B847BC
:102320005545F7D155461E4CE61E14F8010D2A46B8
:102330004B464146B847A64205F10105F5D1079B3A
:102340000AF1030A9D077FF5D5AE0C9CAAEB0403A6
:102350009B457FF6CFAE52464B46414620200AF1C0
:10236000010AB847AAEB04039B45F4D8C2E6DDF89E
:1023700030A0D7E7AB453FF6A3AEAEE6BBF1000F0A
:102380003FF47AAF0D9B002B9FD00BF1FF3B5D45D7
:10239000FFF496AE202D7FF474AF9EE60000E03F80
:1023A000EB640010000000002DE9F04F9FB02A9E62
:1023B000DDE92845074693460891099322462B46B6
:1023C000204629460E96DDE92BA6FFF7EBFB0028F9
:1023D00040F0BE80204629464FF0FF32784BFFF791
:1023E0002FFC002840F0B480204629464FF0FF32F1
:1023F0006FF48013FFF7E8FB002840F0A980204627
:10240000294600220023FFF7DFFB002840F0D5819A
:10241000CDE90A45DDE90A239046994606F40062B3
:1024200016F480630F92139340F0A18058EA0903D9
:1024300040F0CA80002A40F0E38106230E9316F094
:102440000202109240F0D4815346042B38BF04237B
:102450000C920422043B12920F932046294600223C
:102460000023FFF7B1FB002840F0F3819DED0A7BCC
:102470000F9B5A4603930E9B8DED007B029326F42F
:10248000006304933846099B0899FFF72DFD024627
:1024900016F0200F099B08990CBF6520452002F11A
:1024A0000108B8470C9A129B16AC5D1E82EAE273D3
:1024B000A3EBE273D10F002622469946DFF804C150
:1024C00001E0202E10D0CE46ACFB0930C00800EB56
:1024D0008003A9EB43033033BEF1090F814606F1B7
:1024E000010602F8013BECD80523002006930A23DD
:1024F00005950094099D089C4246CDE90330CDE93D
:1025000001612B4621463846FFF7FAFB109A8046B8
:10251000D2B1A0EB0B06B24516D90BEB06022B4647
:10252000214620200136B847B245F6D80BF1FF33DB
:102530005344CBF10102A3EB08034244924538BF58
:10254000002308F10108984440461FB0BDE8F08F11
:102550005A463846CDE92845CDE92BA60E9C099B65
:1025600008992A941FB0BDE8F04FFFF7BDBC58EAA8
:1025700009032BD1002A3FF462AF00230C930E9B7A
:102580000C9A934200F3B9814FF000082046294687
:1025900000220023FFF718FB002840F013819DED77
:1025A0000A7B26F4006646F480668DED287B5A4649
:1025B0003846CDE92A8A099B08992C96D2E700BFB4
:1025C000FFFFEF7FCDCCCCCC06230E93C9F30A508E
:1025D000A0F2FF30FFF79EFAC1A3D3E90023FFF773
:1025E00025FAC1A3D3E90023FFF7F8F9C9F31309CA
:1025F000CDE90C0149F07F5140460022B24B41F435
:102600004011FFF7FFF9A4A3D3E90023FFF70EFA67
:1026100002460B46DDE90C01FFF7E0F9FFF79EFAF1
:102620000C90FFF777FA9EA3D3E9002380468946F2
:10263000FFF7FCF90022A54BFFF7D0F9FFF78EFA60
:10264000034649464046129397A3D3E90023FFF778
:10265000EDF9804612988946FFF75CFA94A3D3E916
:102660000023FFF7E3F902460B4640464946FFF7D1
:10267000C9F902460B4680468946FFF7D7F942461C
:102680004B46CDE9100140464946FFF7A7F9002225
:10269000CDE91401DDE910018D4BFFF7EDF90022C2
:1026A0008C4BFFF79BF902460B46DDE91001FFF763
:1026B000E3F90022884BFFF791F902460B46DDE96A
:1026C0001001FFF7D9F942464B4680468946002063
:1026D0004FF08041FFF796F902460B4640464946C7
:1026E000FFF77CF902460B46DDE91401FFF7C4F958
:1026F00000227A4BFFF772F9129B002203F2FF3C93
:102700004FEA0C53FFF792F980468946DDE90A014A
:1027100042464B46FFF758FA50B10C9B4046013BEE
:1027200049460C9300226B4BFFF7A6F98046894679
:102730000C9A43466332C62A06F0020210924946BA
:102740000F9A2CD8002A5ED0042212920B433FF439
:1027500016AFDDE90A0158A3D3E90023FFF75CFABD
:1027600048B1DDE90A0156A3D3E90023FFF72CFAAB
:1027700000287FF404AF0E9B002B50D0139A002A40
:102780007DD0013B0E93129B9A4505D9109B002BDF
:1027900000F0AE800223109300230F9344E022BB8D
:1027A000BAF1050F4FD906F00203002B49D10523DA
:1027B0001293AAF105030F933AE005F100430A943E
:1027C0000B9327E626F4006646F4806638462C967E
:1027D000DDE90A67344607F100455A46CDE92A8A01
:1027E000CDE92845099B0899BCE605221292ADE780
:1027F00000230222CDE90F3204220C9312922CE620
:102800004FF00508C2E6BAF1040F1FD9109B002B48
:1028100078D104231293AAF104030F9304E0129BCE
:102820009A4531D80E9B0F930C9B002B3FF415AEAD
:10283000DDE90A0142464B46FFF71EF9CDE90A01E0
:102840000BE60223109305231293F1E7042312935E
:10285000EAE7DDE90A45A0460F9B05F1004903932D
:102860000E9B5A46029326F4006304933846CDE942
:102870000089099B0899FFF737FB024608E6129B7F
:102880009A4544D80F92CFE7109B8BB30E9B0F93C2
:1028900002231093C8E700BF61436F63A787D23F4D
:1028A00071A379094F930A401655B5BBB16B02402D
:1028B000EF39FAFE422EE63F2D431CEBE2361A3F7B
:1028C0000000000080842E410000F83F0000E03F3F
:1028D00000002C4000002440000018400000F03FA1
:1028E000FB799F501344D33FB3C8608B288AC63FFF
:1028F000129BAAEB03030F9396E7A3EB020808F1E0
:10290000FF3843E604231293022310938CE7109BB5
:10291000002BEDD002230F92109385E72DE9F04FA5
:102920009BB0249C954D0A94954CB1F1000A18BFB8
:10293000834625601878934C914608BFA3460993B7
:10294000002800F093824FF000080AE042464B4610
:10295000514608F10108D847099B1878002800F073
:10296000CE80099B252803F101030993EED11C4673
:102970000023224612F8010BA0F1200110290AD8E9
:10298000DFE801F04009093C09090909090909388A
:10299000093409093000A0F130010929099440F2F5
:1029A0008A802A2800F0F08000252E2800F09680EA
:1029B0000026A0F1680112292DD8DFE811F04901A5
:1029C0002C0043012C0038012C002C002C002C0082
:1029D0002C002C002C0027002C002C002C002C009C
:1029E0002C002700144643F00103C2E7144643F0CD
:1029F0000203BEE7144643F00403BAE7144643F06B
:102A00001003B6E7144643F00803B2E70999487883
:102A100043F480730132672809927ED8242840F25B
:102A2000C180A0F12502422A00F2BC80DFE812F04A
:102A30005001BA00BA00BA00BA00BA00BA00BA002F
:102A4000BA00BA00BA00BA00BA00BA00BA00BA00B6
:102A5000BA00BA00BA00BA00BA00BA00BA00BA00A6
:102A6000BA00BA00BA00BA00BA00BA00BA00BA0096
:102A7000190137011901BA00BA00BA00BA00BA0048
:102A8000BA00BA00BA00BA00BA00BA00BA00BA0076
:102A9000BA00BA00BA00BC01BA00BA00BA00BA0063
:102AA000BA00BA00BA00BA00BA00BC015801BC01B1
:102AB000190137011901002500E0013205EB8505F8
:102AC00000EB45051078303DA0F130010929F4D91B
:102AD0002E28099202F101027FF46AAF099943F4AA
:102AE000806348781146A0F13006092E40F221811A
:102AF0002A2800F02F8109920026013259E7444626
:102B0000C14501D809F1FF384B46424651460020E5
:102B1000D84720461BB0BDE8F08FA0F16902D2B2C1
:102B20000F2A3FD8012149F241079140394040F036
:102B3000F3800A2A3DD0072A34D10A9D55F8042B88
:102B4000002A00F0138143F0210012AB1F460B93C3
:102B500003E0202900F014811A4602F00F042346F6
:102B6000092C94BF303337330F2A07F8013B01F1AA
:102B700001014FEA1213ECD802E100BF1D29001039
:102B800068220020611C00100A99099851F8045B22
:102B90004078002DCDE90921BCBF43F002036D420E
:102BA000013202E742464B46514608F10108D84738
:102BB000D2E60A99002E51F8047B18BF32463878C5
:102BC00008BF4FF0FF32002800F07B83BC18A446FA
:102BD0003A4604E012F8014F002C00F03F81944582
:102BE000F8D16446E41B5A0540F12281B44228BF63
:102BF000344613F0020300F088820223CDE90A5123
:102C000042461D46464408E04B465146D84717F811
:102C1000010F08F1010810B142464645F4D12B4698
:102C20000B990A9D002B40F041810A9194E6099985
:102C300048786C287FF4ECAE0A46887843F44073F9
:102C40000332E8E6099943F4007348780132E2E67A
:102C500009994878682800F0038143F08003013225
:102C6000D9E6672800F0D980472800F0DC804528A5
:102C700000F0DB80CDE903530A9B0296073323F073
:102C800007031C464246F4E802674B465146584645
:102C9000CDE900670A94FFF787FB80465CE646288B
:102CA00008BF43F02003CDE903530A9B0296073384
:102CB00023F007031C464246F4E802674B465146A0
:102CC0005846CDE900670A94FFF70EF9804643E6BF
:102CD00042464B465146252008F10108D8473BE6BD
:102CE0000A9A990702F1040408F1010640F1C6802E
:102CF00010784B4642465146D847012D88BFA8441C
:102D000040F2BD8132464B46514620200136D8471D
:102D10004645F7D10A941FE66F2800F0818040F203
:102D20004882782800F090810A2723F01003BC46DF
:102D300041E0002606EB860600EB4600A0F13006D7
:102D400011F8010FA0F13002092AF3D90A460991BE
:102D500001322EE6DDE9092151F8046B9078023248
:102D600009920A91013226EAE67622E623F0100063
:102D700013F4806240F021003FF4E7AE12AB0B93F6
:102D80000B9B0690009308231020059300234246D6
:102D9000CDE9023001914B46514658460496FEF764
:102DA000AFFF0A958046D7E5582862D0622840F0E8
:102DB0008F800227BC4613F4806000F0DD8023F092
:102DC0000D0313F4007240F081810A990F1D13F472
:102DD000807140F037825C060A9A40F13B8112789C
:102DE000002A40F04E8123F01003002800F04981B2
:102DF000114612AA0B92CDE90553CDE903C6019104
:102E00000B9B4246009300235146029358464B4683
:102E1000FEF776FF0A9780469EE543F4006329E7B4
:102E20000827BC46C7E743F4006343F0200321E7CB
:102E300013F0020300F08E8102230A951E460D4610
:102E400042464B465146D84717F8010F08F1010892
:102E50000028F5D1294633460A9DE3E6D41BC2E695
:102E60000A46887843F0C0030332D4E5044680461E
:102E700046E6102743F02003BC469CE7012D40F2B4
:102E8000F880464608F1FF372F4432464B465146FC
:102E900020200136D847BE42F7D10A9B3246187827
:102EA00051464B46D847A8440A9455E54646A542A4
:102EB0007FF6BBAEA844A8EB04080C4632464B464E
:102EC000514620200136D8474645F7D12146ACE689
:102ED00013F4806200F0BB804FF4806223F0110C89
:102EE0001CF400770A9B4AD11CF4807003F104049F
:102EF00040F034811CF0400F40F0A3801CF0800FA4
:102F000000F0D381B3F9001081EAE177A7EBE17714
:102F1000BFB2CB0F002900F056813A4612A90F46E6
:102F2000DFF8D8E30B910A930C9501E020280FD02D
:102F30001546AEFB0213DB0803EB8301A2EB410154
:102F40003031092D1A4600F1010007F8011BEDD8B8
:102F50000A9B0C9DCDE9055CCDE9010304960B9B12
:102F6000424600930A235146039358464B46FEF7C8
:102F7000C7FE0A948046EFE423F00C0321E70733F1
:102F800023F00703194608465B6850F8081BDF0F5B
:102F90000A9051EA030062D1002A40F09F81134653
:102FA000114612AACDE90C7500201546CDE90E6830
:102FB000DFF848E30B9201E020282DD05A1842F1A7
:102FC0000002AEFB027828F0030707EB9807D21B3C
:102FD0001E469B1A61F100070C464FF0CC3101FBF5
:102FE00003F10EFB0711A3FB0E731944052307F031
:102FF0000108A8FB03389B180A2E03F130034FEA9F
:10300000570774F1000405F8013B00F1010047EA9D
:10301000C1734FEA5101CFD2DDE90C75DDE90E68CD
:103020000B9B424600930A23CDE9055CCDE90107DD
:10303000049603934B4651465846FEF761FE804680
:103040008AE419780F4664E71027BC46B3E623F0FC
:10305000100C45E71C064CBF12881268C0E60A46F1
:10306000191E01DB13469CE75242134661EB4101F6
:1030700097E713465146187842464B46D847B04624
:1030800048E613F0200F14BF4120612012ACA64681
:103090000B940A93A0F10A040C9502E0202912D0A7
:1030A0002A46B2FBFCF50CFB1520C3B2092803F13C
:1030B00030008ABF1B19C3B2DBB262450EF8013B78
:1030C00001F10101EAD20A9B0C9D94E60A9A0732AB
:1030D00022F00702516852F8084B8E460A9254EAD1
:1030E000010276D123F01003002872D0002211468D
:1030F00012AA0B92CDE905530B9B42460093002385
:10310000CDE903C60191029394E7A54298BF01342B
:103110007FF674AD4FF48063CDE90A7505EB0802C4
:103120001F460D46141B42464B465146202008F1CF
:103130000108D847A045F6D13B460A9F2946387872
:103140000B9D6C1C00283FF470AD002B3FF475AE56
:10315000002353E5A542DFD801346EE61968CB0F92
:10316000002900F0A88081EAE172A2EBE17212A9C5
:103170000846DFF888E10B910A930C9501E0202FB7
:103180000FD01546AEFB0213DB0803EB8301A2EB65
:1031900041013031092D1A4607F1010700F8011BE2
:1031A000EDD80A9B0C9DCDE9055CCDE90173049631
:1031B000D5E6692823F0100C40F08C8013F480626F
:1031C0003FF48EAE88E6002A3FF4A8AE12AA0B9216
:1031D000C0E613F0200F14BF41226122002012A983
:1031E0000A3ACDE90E68CDE90C35CDF844B0064673
:1031F0008846754693460B91CDF840C003E0202EDB
:1032000017D004460D4629463A460023204603F0CF
:10321000A3F8D2B2092A02F1300388BF02EB0B03F4
:10322000BC42DBB275F1000508F8013B06F101066E
:10323000E5D23146DDE90C35DDE910CBDDF83C8027
:103240000E9E57E70A99096851B923F0100338B167
:1032500012A90B91CDE90553CDE903C60192CFE543
:1032600013F0200F14BF4120612012ACA6460B942E
:103270000A93A0F10A040C9502E0202A12D02946F4
:10328000B1FBFCF50CFB1510C3B2092803F13000AB
:103290008ABF1B19C3B2DBB261450EF8013B02F1D4
:1032A0000102EAD20A9B0C9DD4E7196881EAE17712
:1032B000A7EBE1772DE6002A3FF459AF12AA0B9253
:1032C00071E713F480640DD013F0020412D00446A9
:1032D0004646ECE50A276346BC466CE512AB002087
:1032E0000B939DE613F002037FF4E0AD002D7FF415
:1032F00013AF9AE4002D7FF40DAF96E4CDCCCCCC87
:1033000070B594461E4605460C4684B04FF0FF3219
:10331000634602A900960348CDE90254FFF7FEFA7E
:1033200004B070BDDD1E001010B5094B84B01C68E0
:103330004CB1034600914FF0FF3203A90548A04766
:10334000012004B010BD00F079F9204604B010BD92
:1033500068220020D51E001000BEFDE708B5FFF76B
:10336000FBFF00BF38B5064C064DFEF72BFAAC420A
:1033700004D254F8043B9847AC42FAD338BD00BF9E
:10338000C8630010D463001003680846114618474C
:103390002DE9F0411546427D07468846002A46D071
:1033A000002D1DDD0B780A2B23D0012D4FF0000CD2
:1033B00018D04646012416F8012F21460A2A04F1A6
:1033C000010422D0A542F6D165450BDC08EB0503CC
:1033D00013F8013CA3F10D03B3FA83F35B093B75CA
:1033E000BDE8F0813B68A5EB0C0108EB0C009847A9
:1033F000ECE7037D002BD8D1036802210F489847E2
:10340000012DE3D04FF0010CD3E716F8013C0D2B52
:10341000D8D08C4508EB0C00A1EB0C0101DA3B681D
:103420009847022105483B689847A446CAE72946C1
:1034300040463B68BDE8F041184700BF58660010A1
:103440000B682DE9F041802B0D46064605D05A1C2D
:103450002B442A601E71BDE8F0810F4B1C68A4B19B
:103460000E4F01F1040801E0246974B12368002BB8
:10347000FAD03B680BB1A342F6D1204641462A68F8
:10348000FFF786FF2469002CF0D1002301222B4492
:103490002A601E71BDE8F0815C1E0020641E0020C1
:1034A0002DE9F04782B00D4691461C460646FDF7D1
:1034B00045FF4FF0FF3C6FF000472E4A821841F164
:1034C0000003944577EB03013CBF62463B462A4824
:1034D00002F052FF6B1C804640D00CB3274F284BA4
:1034E0001C68B4B1B9F1000F1CD1DFF89C9001E069
:1034F000246974B12368002BFAD0D9F800300BB1DD
:103500009C42F5D120462A463146B8472469002C12
:10351000F0D1B8F1000F26D1284602B0BDE8F087FF
:10352000184FDCE74FF00A0ADFF85C9002E02469EC
:10353000002CEED02368002BF9D0D9F800300BB165
:10354000A342F4D12A4631462046B84701222046FC
:103550000DF107018DF807A0B847E8E7304602F003
:1035600069FE0546B9E7044802F0FAFE284602B0B3
:10357000BDE8F08740420F000C1500209133001089
:103580005C1E002089330010641E0020084A136866
:1035900023B90AE003F110021B6933B18342F9D168
:1035A00029B9186910601961704701B1106070473E
:1035B0005C1E002000F0DEBAF0B583B006468DF840
:1035C0000700FDF7BBFE4FF0FF356FF00044174AD0
:1035D000821841F10003954274EB03013CBF23467E
:1035E0002A46134802F0C8FE124B07461C689CB1DD
:1035F000114D01E024697CB12368002BFAD02B68BF
:103600000BB19C42F6D1204601220DF10701FFF7D4
:10361000BFFE2469002CEFD117B9304603B0F0BDCE
:10362000034802F09DFE304603B0F0BD40420F005B
:103630000C1500205C1E0020641E002038B50446D6
:1036400002F0F8FD012305461A4620462946FFF7F9
:1036500027FF084B1C682CB163682BB1984724697D
:10366000002CF9D1284638BD2469002CF4D1284615
:1036700038BD00BF5C1E00202DE9F041A2B0044619
:103680000D46FDF75BFE4FF0FF376FF00046264A10
:10369000DFF8A480821841F10003974276EB030122
:1036A0003CBF3A463346214802F066FE00272B46CF
:1036B0002246064601A91E480197FFF721FE019BFD
:1036C0000546D8F80040C3B1002C2BD0194F01E0BB
:1036D000246974B12368002BFAD03B680BB1A34274
:1036E000F6D12046019A02A9FFF752FE2469002C68
:1036F000F0D10023D8F8004001932CB1636843B1A6
:1037000098472469002CF9D12EB9284622B0BDE88B
:10371000F0812469F1E7054802F022FE284622B034
:10372000BDE8F0810194EFE740420F000C15002046
:1037300041340010641E00205C1E00200FB400B550
:1037400083B004A951F8040B0191FFF795FF03B072
:103750005DF804EB04B07047704700BF0022014BD6
:103760001A707047072300204B79FF2B0BD1887903
:1037700048B9CB79012B07D1082A05D9034B8A78A0
:1037800009201A7070470020704700BF07230020EF
:1037900001207047012901D00120704708B5104B66
:1037A00091881B78994201D0002008BD5378012BE5
:1037B00008D0022BF8D1002164220846FDF73EFF15
:1037C000012008BD5188CB0548BF480AC1F34022FB
:1037D00058BF4FF0FF3001F07F01FDF7ADFF00BF94
:1037E000072300200048704724670010012907D1F3
:1037F0005378012B02D19388072B03D00020704708
:10380000012070471146A623014A01F039BA00BFD2
:103810007C6600100346012201481A70704700BF01
:103820005C66001008B50B68B3F5966F00D008BD54
:1038300000224FF0FF301146FDF77EFF024A034B96
:1038400010601960704700BFFC1D0020001E0020A2
:10385000184B70B51A68002A28D0EFF3108172B6A1
:10386000D2E8CF4F0120002CFAD1C2E8440F002C3F
:10387000F6D1BFF35F8F00220F4C18685960227099
:10388000C0E88F2F81F31088002400250B4E30787C
:10389000FCF722FF20B9002400252046294670BDF0
:1038A0003078FCF729FF2046294670BD4FF47A7422
:1038B0000025EBE78C2200200923002008230020AC
:1038C000014B1878FCF718BF0823002038B50446D0
:1038D00000200D4601F004FBA8B3002001F016FB08
:1038E00088B3FDF72BFD4FF0FF3E6FF0004C174AF9
:1038F000821841F1000396457CEB03013CBF724600
:103900006346134802F038FDE8B1002001F0E8FA00
:1039100058B900214FF0FF3000F00AFD6FF00204AB
:103920000B4802F01DFD204638BD002001F0EEFAE4
:103930000028EED021462A46002001F0F1FA044684
:103940000028EDD1EAE76FF00204ECE740420F00F7
:10395000C422002008B5FDF7F1FC4FF0FF3E6FF0E8
:10396000004C0F4A821841F1000396457CEB03019D
:103970003CBF724663460B4802F0FEFC70B14FF04C
:10398000FF30002100F0D4FC002001F011FB0028E2
:10399000F5D1BDE80840034802F0E2BC08BD00BF15
:1039A00040420F00C42200202DE9F84380460F4614
:1039B000FDF7C4FC4FF0FF356FF00044334A821826
:1039C00041F10003954274EB03013CBF2A462346B4
:1039D0002F4802F0D1FC08B9BDE8F883002001F0BF
:1039E0007FFA002847D0002F40DD0025DFF8A8909F
:1039F000284E13E02246002001F020FB002104465F
:103A00004FF0FF3000F094FC002001F0D1FAFDF7F8
:103A100095FCC9E900012544AF4227DD002001F0F3
:103A20002DFB7C1B8442A8BF044608EB0501002C3B
:103A3000E0D121464FF0FF3000F07AFC204601F043
:103A4000B7FA204601F04CFA80B1204601F016FB8F
:103A50000028E1D1FDF772FCD9F80030D9F8042034
:103A60009B1942F1000283428A41D5D20848BDE841
:103A7000F84302F075BC00200021074BC3E90001A8
:103A8000BDE8F843024802F06BBC00BF40420F00A3
:103A9000C422002020A107009816002030B5002184
:103AA00085B02E4802F06CFCF0B92D4B1A68CAB1F3
:103AB000EFF3108172B6D2E8CF5F0124002DFAD166
:103AC000C2E8454F002DF6D1BFF35F8F254C1D682E
:103AD00022785960D3B201222270C5E88F0F81F39A
:103AE0001088CBB105B030BD00214FF0FF3000F0A1
:103AF0001FFC002001F00AFA0446184802F030FCCE
:103B0000002CEFD0184B1B68002BEBD0174A106825
:103B100005B0BDE830401847FDF706FA0446FDF74A
:103B20000DFC4FF0FF3C6FF0004510F57A7241F14B
:103B30000003944575EB030138BF2B464FF000019D
:103B40004FF0010520460A4C38BF6246CDE9011509
:103B50000094FDF7EDF905B030BD00BFC422002090
:103B60008C22002009230020FC1D0020001E0020C4
:103B7000513800104FF0504330B585B01C68FDF748
:103B8000D3F9FDF7E7FAA04202D0002005B030BD1E
:103B900000212A4B08461B7801F038FD28480368AD
:103BA000002B47D00120FCF745FF0346254C264952
:103BB000C0B22370FCF7BCFD20780121FCF776FD34
:103BC0000E20FCF7A5FD40BB204B0125C3E90000FA
:103BD000FDF7AAF90446FDF7B1FB4FF0FF3E6FF089
:103BE000004C10F57A7241F1000396457CEB03011D
:103BF0004FF000012046164C3CBF72466346CDE9AB
:103C000001150094FDF794F90028BEDB012111484D
:103C1000FFF7BCFC012005B030BD0120FCF702FD20
:103C200001460A48FCF762FF00220E200A49FCF711
:103C3000AFFDEBE7FCF73EFFB4E700BF3C680010C8
:103C4000C4220020082300209D3A00108C2200206E
:103C500051380010D0140020C138001000487047BF
:103C6000C0670010004870476C67001038B5184BEB
:103C700004461A780AB344B940F209424FF441733A
:103C8000144D6A8013482B8038BD052C1DD8124B6B
:103C9000104D53F8241028460023013903E0132B5C
:103CA00020F8022F0ED011F8012F0133DBB2002AC9
:103CB000F5D15B0043F44073E4E71121184600F0AE
:103CC00025F8D8E74FF44A73DCE7002038BD00BF81
:103CD000D0220020341E00205467001000B545F2A9
:103CE00047308BB0FDF71CFD01220346092101A8D6
:103CF0009847DDE90332044912BA1BBAC1E900232F
:103D00000BB05DF804FB00BFB4220020012901F1D3
:103D1000FF3300F0B3805D490A784FEA121C9F2AF6
:103D20008CBF0CF1370C0CF1300C012B80F800C06B
:103D300000F0A78002F00F02092A8CBF3732303220
:103D4000022B427000F09D804A784FEA121C9F2A95
:103D50008CBF0CF1370C0CF1300C032B80F802C037
:103D600000F08F8002F00F02092A8CBF3732303208
:103D7000042BC27000F085808A784FEA121C9F2ABB
:103D80008CBF0CF1370C0CF1300C052B80F804C003
:103D900077D002F00F02092A8CBF37323032062B5F
:103DA00042716ED0CA784FEA121C9F2A8CBF0CF168
:103DB000370C0CF1300C072B80F806C061D002F0F4
:103DC0000F02092A8CBF37323032082BC27158D00B
:103DD0000A794FEA121C9F2A8CBF0CF1370C0CF1A8
:103DE000300C092B80F808C04BD002F00F02092AD2
:103DF0008CBF373230320A2B427242D04A794FEAB6
:103E0000121C9F2A8CBF0CF1370C0CF1300C0B2BC1
:103E100080F80AC035D002F00F02092A8CBF373271
:103E200030320C2BC2722CD08A794FEA121C9F2A96
:103E30008CBF0CF1370C0CF1300C0D2B80F80CC042
:103E40001FD002F00F02092A8CBF373230320E2BFE
:103E5000427316D0CA7911099F2A8CBF373130318D
:103E60000F2B81730DD002F00F02092A94BF30325C
:103E70003732102BC27318BF103002D000230370EA
:103E80007047184400230370704700BFB42200201D
:103E900070B500F02DF90C234026194CFF22A367C2
:103EA0000E201849FCF774FC32460021164802F037
:103EB000E5F80125002380211348144A4184457008
:103EC0000683068782604360136042F8043C80F8F2
:103ED000213080F83B3043620D4B4FF00056C360F9
:103EE000C362803B836202F033FA4FF480320949A7
:103EF000094B25642846E664C4F89010DA6470BD66
:103F0000000011509D030020681E00208400105006
:103F10000001105010D001000020115001210E208E
:103F2000FCF7C4BB00220248114600F001B900BFF3
:103F3000881E0020044B197021B14FF40032034B4E
:103F4000C3F89020704700BF0323002000201150C9
:103F50000B785B0602D14B78052B00D070474B885D
:103F6000014ADBB21360704700001150CB782DE995
:103F7000F04103F0030EBEF1010FC3F301005BD06B
:103F8000002791F802C0344C0CF07F02560089885B
:103F900006EBDC1304EB43134FEADC15D876C1F3D0
:103FA0000A0185F0010083F802C019835870DF70A0
:103FB000D3008DBB2948043304EB821C03EB0008BB
:103FC000CCF808801F5082B3254BD2001344CCF8A4
:103FD0000430244B3F311A6821F03F01BEF1020F3B
:103FE00008BF4900114419601F4B771904EB4717AC
:103FF0009942FA602BD82E4404EB4613D97E82F006
:10400000A04282F480125B6842EA816242F0004280
:104010001A600120BDE8F081104804EB821C0344C3
:10402000CCF8283040F832704AB900220F4904EB2E
:104030004513D9605A60ECE70020BDE8F081D2005A
:1040400002F1A04202F58012CCF82420C1E7FDF76E
:10405000B3FBFA68CFE700BF681E00208000105055
:104060000400105070220020FF0F1050000110506B
:1040700002F06EB98C4608B5114607481A460CF096
:104080007F034FEADC1C0CEB430C00EB4C1000F000
:104090004FF8012008BD00BF681E002011F07F020C
:1040A00005D100290CBF02200120064B9866C909E2
:1040B000054B01EB420003EB40104FF4006200217E
:1040C00002F056B900201150681E002011F07F0345
:1040D00000D17047002205485B0003EBD11300EBD1
:1040E00043106FF40061C27002F042B9681E0020F4
:1040F0004FF0805209480A4908B50A4B02600A602D
:104100009968C94311F08051FAD14FF480520648A2
:1041100001F0B4FF0922054B5A6708BD0020024098
:10412000003002400000024000001050000011501A
:1041300000234FF0010C10B580F81AC08282C382B0
:104140000161044602F000F920B14FF40032074B40
:10415000C3F89020204602F007F910B1012323771D
:1041600010BD2046BDE8104002F0E6B80020115016
:104170002DE9F04100241D4E054623463278DFF834
:1041800078801B4F0DE03B6813EB441324D0DB68B1
:104190002846984732780134E4B2511CA1422346A4
:1041A00006DBA242A3EB0203EDD808EB4313EEE7D4
:1041B000542200210F4801F061FF4FF0FF330D48FA
:1041C0002022041D4360C4E90133E360FF21BDE800
:1041D000F041143001F052BF4FF0E023D3F8F03D2E
:1041E000DB0700D500BEBDE8F08100BF0223002040
:1041F00038180020081A0020D4670010704700BF4C
:10420000704700BF0020704700207047704700BF14
:10421000704700BF704700BF704700BF024B58781F
:10422000003818BF01207047081A0020024B187888
:10423000C0F38000704700BF081A00202DE9F04746
:10424000DFF8E4A09AF80030FF2B56D10E46002983
:104250003ED0002154220746294801F00FFF0022DA
:10426000284C294B20461A70FCF724FC274B284881
:104270001C60284CFCF72CFC204601F0ABFD264AC4
:10428000264B146023B12648FFF7C4FA254B18606B
:104290000024234D23462A78DFF89090DFF88480AD
:1042A0000EE0D8F8003013EB441311D05B687BB1FB
:1042B00098472A780134E4B2511CA142234611DB0D
:1042C000A242EED89B1A09EB43135B68002BEFD197
:1042D0004FF0E023D3F8F03DDB0700D500BE00200F
:1042E000BDE8F087314638468AF80070FFF7D0FD08
:1042F0000028EDD03846FFF711FE0120BDE8F08719
:10430000081A0020001A0020042300205C1A002054
:10431000FC140020E8140020601A0020153800105A
:10432000022300203818002004150020D467001054
:104330002DE9F04FDFF8C8928BB099F80030FF2BD1
:1043400000F0F180A84CA94DDFF8B0A2DFF8B4B2BC
:1043500026687369EFF3108272B6D3E8CF0F01219C
:104360000028FAD1C3E8401F0028F6D1BFF35F8FC1
:10437000B261304607A901F077FB00237269C2E8F9
:104380008F3FB36983F31088002800F0CC809DF83C
:104390001D30013B072B00F27D83DFE803F0A7B15E
:1043A000959D8E350A04089B002BD1D0099898471B
:1043B000CEE79DF8201001F07F0605EB460000EBEC
:1043C000D11090F8343023F0010380F8343090F8A5
:1043D000343023F0040380F83430002E00F0A6803F
:1043E000037D9AF80020934280F09380804A1268FF
:1043F00012EB431300F090809E699DF82120099BE9
:104400009DF81C00B047A3E79BF80030002B00F09C
:1044100083809BF80030013BDBB28BF800309BF8C7
:10442000003003F0FF00002B92D1704F9DF81C80EC
:104430003B7843F001033B7097F8343060F300039E
:1044400087F8343097F8343060F3820387F83430DB
:1044500097F8353060F3000387F8353097F835303A
:1044600060F3820387F8353000F06CFC9DF8203053
:1044700003F06002602A6CD0402A7CD003F01F0356
:10448000012B00F0C180022B00F08180002B60D155
:10449000202A00F0E981002A5BD19DF82130092B08
:1044A00057D8DFE813F0B001A2015600C101560051
:1044B00095016B0156006001F4002B78D9077FF558
:1044C00047AFFFF7A9FE43E7EB78DA077FF540AF88
:1044D0000898FFF795FE3BE72B78D8077FF538AFB4
:1044E0002878C0F3C000FFF795FE31E79DF81C0067
:1044F000FFF73EFE00F01CFC9DF82030AB7027E774
:104500009DF81C00FFF734FE00F012FCFFF780FE60
:104510001EE7501C984211DA4FF0E023D3F8F03D2B
:10452000DC0700D500BE0BB0BDE8F08F099B9DF8FD
:1045300021209DF81C0000F019FC09E79B1A2D4A68
:1045400002EB431358E7FFF78DFB0246002840F0CB
:1045500082814FF0E023D3F8F03DDE0700D500BEA6
:104560009DF81C000021FFF799FD80219DF81C009B
:10457000FFF794FDECE6204800F0E4FB0121404603
:1045800008AAFFF733F900287FF4E2AEE8E79DF8C8
:10459000241011F0700FDCD101F07F0607EB46000C
:1045A000164B00EBD1101B78007D760001969842E7
:1045B0004FEAD116009659D35E1C8642C0F266813E
:1045C000C01A0C4B03EB4016002A00F0638170699F
:1045D00000F0B8FB01214046736908AA98470028FB
:1045E0007FF4B6AEBCE700BF601A0020081A0020B6
:1045F00038180020D4670010ED3700100223002087
:1046000004150020042300209DF824300F2BA7D888
:10461000AE4A3B441B791278934232D3511C9942E3
:104620009EDBAB4E9B1A06EB4316706900F08AFBCB
:1046300001214046736908AA984700287FF488AE94
:104640009DF8203013F060068AD19DF821300A3B96
:10465000012B85D800F076FB9DF821300A2B00F065
:10466000F281404608A900F0F1FA71E6994B1B6807
:1046700003EB4016002A00F00D81002E3FF470AFCE
:10468000A5E7944A166816EB4316CED168E77B7807
:104690009DF822609E4200F04F817B78002B40F015
:1046A000BE817E70002E00F04581701EC0B2FFF703
:1046B000D9FA0346002800F05F814278022A40F0D0
:1046C0005B81C17903F10906C1F340121201C1F304
:1046D000801142EA41123146387820F0300002431E
:1046E0003A705A88CDF80C809A180192019B8B423F
:1046F00040F2A4814A780B2A00F0AF810123042AFA
:1047000040F03A810026019A0096521A92B2029223
:104710006E4A049312781DE06E4B1B6813EB46182B
:1047200000F02A81029AD8F8103003980591984732
:1047300008280246059906F1010303D90298904220
:1047400080F0FF80DEB2614B00961A78531C9E42C7
:1047500000F31281009BB242A3EB0202DCD85C4B57
:1047600003EB4218DEE77B7840468DF81A300DF1F6
:104770001A02012308A900F083FAE9E5BDF8220036
:10478000030A013B020AC0B20E2B3FF6E9AE01A1BB
:1047900051F823F0A949001045480010E5490010E0
:1047A0006145001061450010C749001045480010E0
:1047B0006145001061450010614500106145001021
:1047C0006145001061450010614500109B490010D3
:1047D00008A800F0BDFA40469DF82210FFF7A2FBA2
:1047E0003B7843F002033B70B2E5BDF82230012B69
:1047F0007FF4B6AE3B78404623F0080308A93B702F
:1048000000F024FAA4E540463B789A0802F0020240
:10481000C3F340131343ADF81A300DF11A0202230B
:1048200008A900F02DFA93E5BDF82230012B7FF4A2
:1048300097AE3B78404643F0080308A93B7000F070
:1048400005FA85E5022A3FF47EAEFFF7DDFC02465D
:1048500000283FF485AE4046538808A900F010FABE
:1048600000287FF475AD7BE69DF824300F2B3FF6D2
:1048700077AE164A3B441B79127893421DD2154AF3
:10488000166816EB43167FF4A2AE69E6002A7FF4A1
:1048900067AE00269DF8212002F0FD03012B1BD0FE
:1048A000002A7FF456AE019B009A3B44134493F8D0
:1048B00034304046C3F34003ADE7511C9942FFF644
:1048C0004FAE034E9B1A06EB431680E602230020F0
:1048D000D467001038180020BDF82230B3B9012A7F
:1048E00099F8000000F08680FFF7D8FB019B009A42
:1048F0003B44134493F8342042F0020283F83420FE
:1049000093F8342042F0010283F83420002E3FF463
:104910001FAD706900F016FA7369012108AA4046BC
:104920009847002000F00EFA97F83530DF073FF582
:104930000FAD96E6FFF76CFC404608A900F086F93B
:1049400006E5049B012B00F09E80002B00F08A807E
:10495000002091F8028005E08CF804605FFA80FC8A
:1049600063457FD908EB000C57FA8CFC9CF804E0F7
:104970000130BEF1FF0FEFD04FF0E023D3F8F03D50
:10498000DA0700D500BE4FF0E023D3F8F03DDB0797
:1049900000D500BE00237B70E2E5FEF723FF024650
:1049A00000287FF458AFDBE5FFF758F902460028EE
:1049B0003FF4CFAD4046122308A900F061F900286A
:1049C0007FF4C6ACCCE5FFF71DFC024600283FF49F
:1049D000C7AD4046137808A900F052F900287FF4CB
:1049E000B7ACBDE5BDF82410FFF740F9024600283A
:1049F000EFD1B5E50293FFF769FB019A009B3A44BA
:104A00001A4492F83410029B63F3410182F8341087
:104A100092F8341063F3000182F8341076E7002135
:104A20004046FFF787FA4046FFF722FBBB78404637
:104A30000093FFF79DFB009BBB7032E6DDF80C8016
:104A4000FFF7E4FB78E74046012308A90DF11A02BD
:104A50008DF81A6000F014F97AE40A78CB781144E2
:104A60004A784CE6334610480492029100F076FEF4
:104A70000E4B049A02991B781144009A0133934219
:104A8000BFF634AE78E7D8F810C00948844508BFAF
:104A900002235DE74FF0E023D3F8F03DDB077FF51D
:104AA00057AC00BE54E400BF1C1A002002230020B3
:104AB0007D5100102DE9F84F0A9F002A40D00C4686
:104AC0001E4615464FF0000ADFF87C90DFF87C8028
:104AD00018E0204698F8021099F800B000F00EFE99
:104AE000E0B121465846FFF741FAF0B1A2780AF149
:104AF000010AD10916BF0B9B3A701A702278AA4599
:104B000014441DD06278052A0FD1E17801F0030129
:104B1000B1420AD1A27812F0700FDAD04FF0E02340
:104B2000D3F8F03DDA0700D500BE4FF0E023D3F80C
:104B3000F03DDB0702D40020BDE8F88F00BEFAE7A5
:104B40000120BDE8F88F00BF04150020081A0020DE
:104B500038B58B7813F0700F08D04FF0E023D3F8FE
:104B6000F03DDB0700D500BE002038BD074A084BEA
:104B70000C46084691781D7800F0C0FD0028ECD066
:104B800021462846BDE83840FFF7F0B9081A002052
:104B9000041500200B46064A06481168DA0934322B
:104BA00003F07F0302EB4303184400F061BD00BF34
:104BB0005C1A0020081A00200B46064A06481168B5
:104BC000DA09343203F07F0302EB4303184400F0A8
:104BD00079BD00BF5C1A0020081A002010B51948E2
:104BE00001F07F0C00EB4C0000EBD11090F834C0CA
:104BF0001CF0010F08D04FF0E023D3F8F03DDA07A6
:104C000000D500BE002010BD00F1300494F804C0AF
:104C10000D484CF0010C007884F804C0FFF72AFA24
:104C20000028F0D14FF0E021227960F300022271D8
:104C3000227960F382022271D1F8F03DDB07E1D5E1
:104C400000BEDFE7081A00200415002030B50B4C29
:104C50008C46A6460546086849680023AEE803006E
:104C60009CF800102846C943C4E90233BDE830402F
:104C70001A4601F08001FFF7B1BF00BFC81900203C
:104C80002DE9F041284F4FF00008BE468C460646FD
:104C900008684968BA60AEE80300A7F80E801546B8
:104CA000BCF80620934228BF1346BB819AB11C462C
:104CB00033B3DDB197F90030402C28BF4024002BDE
:104CC00029DB414623463046184AFFF787FF68B183
:104CD0000120BDE8F0819CF800101346C94330461E
:104CE00001F08001FFF77AFF0028F1D14FF0E023B7
:104CF000D3F8F03DDB0700D500BE0020BDE8F08111
:104D00001A46397801F0800123463046FFF766FFE6
:104D10000028DDD1EAE722462946044801F014FACA
:104D20008021024AF0E700BFC8190020881900203E
:104D30000022034BC3E90022C3E902221A61704733
:104D4000C8190020014B1861704700BFC819002026
:104D500030B40246044C0025234600685168C4E97B
:104D6000025530BC03C37047C819002070B53D4CD4
:104D7000C90922780646B1EBD21F1D4682B017D072
:104D800053B14FF0E023D3F8F03DDB0702D400200D
:104D900002B070BD00BEFAE72146FFF7D9F82369DB
:104DA0001BB12246032130469847012002B070BD56
:104DB00094F90030002B06DBA0680028E7D02A46D3
:104DC000294901F0C1F9E089A168E388284480B24B
:104DD00029448342E081A16016D03F2D14D9A289D5
:104DE00094F90040131A9BB2402B28BF4023002C9B
:104DF00027DB90424FF0000131D01B4A3046FFF7CD
:104E0000EDFE0028D1D1BCE7236923B10221304651
:104E1000144A984760B121780023C94330461A46A6
:104E200001F08001FFF7DAFE0028AAD00120BDE7DB
:104E300001463046FFF732F980213046FFF72EF960
:104E4000B3E7904208D01A460748019301F07CF975
:104E50008021054A019BD1E780210022CEE70A4646
:104E6000CCE700BFC8190020881900202DE9F041C7
:104E70000446FFF7D3F908B9BDE8F081FFF7D6F98A
:104E800005460028F8D1C82304FB03F3124EF71897
:104E9000F9780029F0D010331E44304600F0D2FDDE
:104EA0003F28E9D92846F978FFF774FE0028E3D0B7
:104EB000304600F0C7FD3F28F97808D9074A284650
:104EC00002EBC4124023BDE8F041FFF787BE28463D
:104ED000BDE8F041FFF770BEC01800203C1800206C
:104EE00010B50446FFF79AF908B9002010BDFFF786
:104EF0009DF90028F9D1C822034B02FB043318792D
:104F000000F0010010BD00BFC0180020C82208B585
:104F1000024B02FB003000F07BFD08BDD0180020E2
:104F20002DE9F8434FF6FF73C8249A4228BF1A466A
:104F300000FB04F4DFF8748004F1100545440646D4
:104F400092B2284600F0DAFD0746FFF767F910B97C
:104F50003846BDE8F883FFF769F981460028F7D1A4
:104F6000A04498F80330002BF2D0284600F06AFDE8
:104F70003F28EDD9484698F80310FFF70BFE0028AC
:104F8000E6D0284600F05EFD3F2898F8031007D9C8
:104F9000054A4846402302EBC612FFF71FFED7E73B
:104FA0004846FFF709FED3E73C180020C018002050
:104FB0002DE9F0410446FFF731F910B90020BDE8B2
:104FC000F081FFF733F905460028F7D1C82604FB26
:104FD00006F6DFF8648006F124074744384600F0FF
:104FE00017FD0028EAD0B044284698F80210FFF7D1
:104FF000D1FD0028E2D00F4E384606EBC4163146EC
:10500000402200F07BFD98F80210044668B1034688
:1050100032462846FFF7E2FD50B94FF0E023D3F8BF
:10502000F03DDB07CAD500BEC8E7FFF7C5FDC5E701
:105030002046C4E77C180020C018002038B54FF681
:10504000FF75C823AA4228BF2A460B4C92B203FB25
:1050500000440546204600F00FFE034620461C464D
:1050600000F0D6FC3F2801D8204638BD2846FFF77F
:105070009FFF204638BD00BFE4180020C82208B5B5
:10508000024B02FB003000F0DDFC08BDE4180020FC
:10509000F0B5002483B0C8220021174800F0EEFFCD
:1050A000FF234FF4E13108221448047012480094A1
:1050B000074643718160827300F138010123402269
:1050C000103000F075FC0123402207F178010093B5
:1050D00007F1B80607F1240000F06AFC07F1C005EB
:1050E0003046FBF7E7FC2846FBF7E4FCC7E9074638
:1050F000C7E90C5403B0F0BDC0180020BC18002054
:105100000A4A116B136A61B13BB10023C2E90C3347
:10511000D36100231362012070470120C2E90C33E0
:105120007047002BF7D0D161F3E700BFC018002013
:10513000002210B50E4C0F48237802600271DA0786
:1051400007D59B070BD5BDE8104001210A4800F0A8
:105150005DBE103000F03EFE23789B07F3D4064876
:1051600000F038FEBDE810400121034800F04EBEBB
:10517000BC180020C0180020E4180020F0B54B79BE
:1051800083B0022B02D18B79022B03D00025284655
:1051900003B0F0BD274FBB783BB14FF0E023D3F80D
:1051A000F03DDB07F2D500BEF0E78B7806463B709A
:1051B0000B78CC186178242908BF092507D036E080
:1051C00023781C4461782B4424299DB207D1954251
:1051D000F6D90020FFF74AFE284603B0F0BD0B4683
:1051E000052916D0042BF4D163790A2BF1D1124B87
:1051F0002778019301330093022330461A46E119C0
:10520000FFF758FC0028C8D00E3517FA85F5ADB267
:10521000DFE721463046FFF79BFC0028BDD0A3788E
:105220007B7023785A191C44637895B2DAE70B46F1
:105230000925D5E7C0180020C2180020137803F014
:105240006003202B08D170B5264C938894F800C0D9
:105250009C4503D0002070BD002070475378203B50
:10526000032BF7D8DFE803F027230D0201292ED006
:1052700003291ED11C4BE3B100205188AFF30080FD
:1052800017E0012923D0032913D15588174805F0C9
:10529000010686F00101257100F0B8FD144B43B101
:1052A00031460020C5F34002AFF3008001E0012940
:1052B00011D0012070BD01290DD00329F9D10D4B6A
:1052C000002BF6D000200C49FEF7ACFAF1E71146AE
:1052D000FFF7BCFCEDE711460723074AFFF7D0FCB8
:1052E000E7E700BFC018002000000000E41800201D
:1052F0000000000025380010C81800202DE9F843F0
:10530000354E0C46F27807468A421D463DD0B378AA
:105310008B4212D04FF0E023D3F8F03DDB0732D4BC
:105320000020BDE8F8832D4B23B12D4800F080FB11
:1053300000284DD00020FFF799FDB378A34201D09B
:105340000120EEE7274B13B10020AFF300800020CF
:10535000FFF72EFE0028F3D1234800F059FB002868
:10536000EED1002DECD015F03F05E9D13846B178EB
:10537000FFF710FC0028E3D02B462A463846B178C8
:10538000FFF72CFCDCE700BECAE79AB2174906F12A
:10539000100000F071FC164B002BC4D07379FF2B6A
:1053A000C1D0002DBFD0DFF8448008EB050902E032
:1053B000C845B8D0737918F8012B9A42F8D108483B
:1053C00000F036FB0028F3D17179AFF30080EFE7EE
:1053D000AFF30080AEE700BFC0180020000000005F
:1053E000D018002000000000E41800203C18002025
:1053F00000000000F0B54FF4137285B00021124890
:1054000000F03CFE402600234FF480750E4F0F4CF9
:1054100007F5A6721946CDE90246009201951A4693
:1054200007F5947000F0C6F90023384607F128010B
:105430003444009101221946CDE902460195043019
:1054400000F0B8F905B0F0BDB01B0020301B002003
:1054500008B5054800F0DAF9034BA3F5927000F0A7
:10546000D5F9012008BD00BFD81C002038B50025A3
:10547000064C04F59870257000F0ACFC04F10C00AB
:1054800000F0A8FC84F82951657138BDB01B0020DC
:105490002DE9F8434B79FF2B51D1354E96F8293140
:1054A000002B4CD196F80580B8F1000F47D18B78CE
:1054B0000C7833700B790F460C44ABB38146A518BA
:1054C00003E0A54230D923781C446378052BF8D13A
:1054D000AC4229D221464846FFF73AFB40B3A378B5
:1054E000DB092FD1234800F075FCA37896F828211A
:1054F00086F82931A3884846C3F30A03A3F500734D
:10550000B3FA83F35B0963F341021B4986F8282150
:1055100000F0EAF960B123783A7908F101081C44F7
:105520005FFA88F39A42D0D8E11B88B2BDE8F883CD
:105530004FF0E023D3F8F03DDB0700D500BE00209C
:10554000BDE8F8830D4800F045FCA378327973710B
:10555000A3880B49C3F30A03A3F50073B3FA83F3DB
:105560005B0963F341020020327100F085F9D2E754
:10557000B01B0020E01C0020D81C0020BC1B002019
:10558000B41B002070B51B4C064694F829C11D467B
:105590008C4511D063798B4201D0002070BD164B31
:1055A0001BB10020A9B2AFF300803046134900F0D0
:1055B00063F9C8B1012070BDB4F8343163B9104B40
:1055C00023B100200F49AAB2AFF3008030460E4944
:1055D00000F08AF90120EEE7D4F82C11AAB204F504
:1055E000987000F049FBEAE72A463046034900F08C
:1055F0000FF9DFE7B01B002000000000B41B002003
:1056000000000000301B0020D81C002010B582B024
:10561000C9B101280CD80B7853B1144C012B235479
:1056200002D0012002B010BDFEF708FE0028F8D11C
:105630004FF0E023D3F8F03DDB0702D4002002B0A6
:1056400010BD00BEFAE70124084601A9ADF80440E8
:10565000FEF7F4FD38B94FF0E023D3F8F03DDA0758
:10566000EDD500BEEBE7014B1C70E8E7FC1900200C
:10567000F8B5037813F001041AD1037805465A07E8
:10568000C3F3800701D52046F8BD0E464FF0FF3129
:10569000304600F04DFE2B7813F001040BD12B782F
:1056A0005B0709D42B78012443F004032B7003E03B
:1056B00000242046F8BD3C46304600F051FE20460E
:1056C000F8BD00BF70B50C4605464FF0FF312046CF
:1056D00000F02EFE2B78C3F380065B0708D52B78ED
:1056E00013F0010311BF00262A7863F382022A70A7
:1056F000204600F035FE304670BD00BFC37882887A
:1057000003F003000228C2F30A0215D003280AD0CE
:1057100001281CD1022940F2FF3308BF4FF48063F7
:1057200093420DD37047022914BF40234FF4806386
:10573000934205D30120704702290AD0402AF9D9A3
:105740004FF0E023D3F8F03DDB0700D500BE00208A
:105750007047B2F5007FEDD0F2E700BF0A449142F6
:1057600026D291F801C0BCF1050F05D091F800C018
:1057700061448A42F5D8704700B591F802C00CF038
:105780007F0E00EB4E0E4FEADC1C0EF80C3091F849
:1057900000C061448A4209D991F801C0BCF1050FEB
:1057A000EBD091F800C061448A42F5D85DF804FB63
:1057B000704700BF2DE9F0418E4682B0009390F80B
:1057C00000C0089EBDF824706EF3000C0446154618
:1057D000012331463A4600F808CBBDF82C8000F092
:1057E000E7F806B13FB901200A9BA4F80280636084
:1057F00002B0BDE8F08104F11C063046FBF75AF90F
:105800000DB135460026C4E90556ECE70120704786
:10581000F8B50746084640F2FF13154610F8082B66
:105820000C4612F0020F0CBF3F261E4600F0F0F8A7
:1058300028B925B12E4202D12378DA0701D50020FC
:10584000F8BD38466178FFF7A5F90028F7D023782E
:1058500013F0010307D04FF0E023D3F8F03DDB074E
:10586000EDD500BEEBE71A4638466178FFF7B6F98A
:105870000028F0D0F8BD00BF70B501F1080506465C
:1058800028460C4600F0C4F810B12378DA0701D599
:10589000002070BD30466178FFF77CF90028F7D012
:1058A00028466288616800F029F92378054603F0EC
:1058B000010340B173B14FF0E023D3F8F03DDB07B3
:1058C000E6D500BEE4E7002BE2D130466178FFF771
:1058D00073F9DDE70346626830466178FFF77EF9C9
:1058E0000028E8D0284670BD8A892DE9F0410B7860
:1058F0000C46064622B9DD0734D50020BDE8F0810C
:1059000004F108079907384647BF4FF47E484FF423
:1059100000754FF6C078402500F094F88542ECD829
:105920002378DA07E9D430466178FFF733F90028A5
:10593000E3D0384600F086F82378854203F001036F
:105940002DD8BBB9658800EA0800854228BF054606
:1059500061785DB362682B463046FFF73FF948B186
:105960002846CBE74978FFF715F90028C5D02378FA
:10597000D80707D54FF0E023D3F8F03DDB07BCD5BF
:1059800000BEBAE7638861783BB162683046FFF7D2
:1059900025F90028EED06088B0E71A46F6E7002B1C
:1059A000ABD130466178FFF707F9A6E72A46D2E780
:1059B0002DE9F041B2F5004F9DF8188024D8044637
:1059C000C06817460E461D4618B14FF0FF3100F073
:1059D000AFFC206918B14FF0FF3100F0A9FC0022A4
:1059E000C5F30E03E06843EAC83362812660A780EE
:1059F000E380228108B100F0B3FC206908B100F017
:105A0000AFFC0120BDE8F0810020BDE8F08100BFBF
:105A1000038942899BB292B28088934236BFC2EB1F
:105A200040029B1A9B189BB2984228BF18467047A9
:105A30000289438990B29BB2C01AB0FA80F0400943
:105A4000704700BF038942899BB2808892B293421B
:105A500036BFC2EB40029B1A9B189BB2984286BF8E
:105A6000C01A80B20020704738B5044600690D4660
:105A700018B14FF0FF3100F05BFC2189638989B2D6
:105A80009BB2A288994236BFC3EB4200C81A4018A5
:105A900080B250B3824209D291422CBF891A891830
:105AA0008BB29A42638103D89B1A9BB29A42FBD96C
:105AB000E2882168C2F30E0202FB0311284600F0BF
:105AC00043FB6189012589B24B1C9BB29942A28894
:105AD0000ED9002302FA05F15B1A9BB2206963819B
